:1000000014C1000043C1000041C100003FC1000015
:100010003DC100003BC1000039C1000037C10000F4
:1000200035C1000033C1000031C100002FC1000004
:100030002DC100002BC1000029C1000027C1000014
:1000400025C1000023C1000021C100001FC1000024
:100050001DC100001BC1000019C10000E4C4000064
:1000600015C100000C949E080C94D4080FC1000028
:100070000DC100000BC1000009C1000007C1000054
:1000800005C1000003C1000001C10000FFC0000065
:10009000FDC00000FBC00000F9C00000F7C0000078
:1000A000F5C00000F3C00000F1C00000EFC0000088
:1000B000EDC00000EBC00000E9C00000E7C0000098
:1000C000E5C00000E3C00000E1C00000DFC00000A8
:1000D000DDC00000DBC00000D9C00000D7C00000B8
:1000E000D5C000003C063F062E06320638067606CE
:1000F000430647064D06510655065B065F06630636
:10010000760669066D06710600000A0B02090C0DE1
:100110000E080703040100000000000000000000BA
:1001200000000000000000000000000000000000CF
:10013000000000001211100000000000000000008C
:1001400000000000000000000000000000000102AC
:1001500010202008081020401020408002010201D9
:100160000804020101020408102040808040201091
:1001700008040201800402018040201008040201EA
:100180000804020101020408102040800102040852
:10019000102040800505050507050808080802022B
:1001A00002020A0A08080404040401010101010111
:1001B00001010303030303030303040707070C0CF4
:1001C0000C0C0C0C0C0C02020202060606060606BB
:1001D00006060B0B0B0B0B0B0B0B00002000230078
:1001E000260029002C002F0032000001000003012E
:1001F0000601090100002200250028002B002E0026
:100200003100340002010000050108010B0100006B
:100210002100240027002A002D00300033000101B6
:100220000000040107010A01060911241FBECFEFD7
:10023000D1E2DEBFCDBF00E00CBF13E0A0E0B2E032
:10024000E6E8F4E100E00BBF02C007900D92AC3984
:10025000B107D9F724E0ACE9B3E001C01D92A334A3
:10026000B207E1F712E0CAE2D2E000E006C022974E
:100270000109FE010BBF0E943D0AC832D10780E090
:100280000807A9F70E940A0A0C94410AB9CE61E056
:1002900070E080E090E034D461E088E361D561E013
:1002A00070E080E090E02CD460E088E359C5BF9214
:1002B000CF92DF92EF92FF920F931F93CF93DF9332
:1002C000082FE62E60E088E34BD560E08AE348D54E
:1002D00060E088E045D5DBDF8DE077D5019711F050
:1002E000B12C02C090E8B92EC0E0D0E010E0F12CB3
:1002F00080E4C82ED12C98010C2E01C0220F0A9444
:10030000EAF727FF02C061E001C060E08AE328D578
:1003100097010C2E01C0220F0A94EAF727FF02C0B2
:1003200061E001C060E088E01BD5B1DFC730D105D6
:1003300061F08DE04AD5019741F496010C2E02C080
:10034000359527950A94E2F7B22A2196C830D1054F
:1003500091F660E08AE304D560E088E001D597DF9C
:1003600060E08AE3FDD460E088E0FAD490DF8B2D72
:10037000DF91CF911F910F91FF90EF90DF90CF9081
:10038000BF900895EF92FF920F931F93CF93DF9347
:10039000082FE62E60E088E3E3D460E08AE3E0D44F
:1003A00060E088E0DDD473DFC0E0D0E010E0F12C45
:1003B000C8010C2E01C0880F0A94EAF787FF02C01B
:1003C00061E001C060E08AE3CBD4C7010C2E01C01C
:1003D000880F0A94EAF787FF02C061E001C060E07D
:1003E00088E0BED454DF2196C830D10509F760E01B
:1003F0008AE3B6D460E088E0B3D449DF60E08AE302
:10040000AFD460E088E0ACD4DF91CF911F910F9121
:10041000FF90EF903CCF61E070E080E090E070D31F
:1004200061E089E39DD461E070E080E090E068D312
:1004300060E089E395C4CF93C82F61E08AE390D44C
:1004400060E088E08DD460E088E38AD480919C03EA
:10045000813021F060E08091000282D4CBB98FEF2F
:100460008AB9D9DF1BB81AB8CF910895CF93DF931B
:10047000EC0184E0E0DF1BB81AB8C130D10539F0D7
:10048000C230D10551F0CD2B79F460E007C061E0B6
:100490008091000265D461E005C061E080910002B6
:1004A0005FD460E088E35CD460E08BE059D461E025
:1004B00070E080E090E024D3C9B161E08BE050D4DB
:1004C0008C2FDF91CF9108951F93CF93DF93182F37
:1004D000EB0180E4B0DF60E08AE342D461E088E0D1
:1004E0003FD460E088E33CD480919C03813021F0CC
:1004F00060E08091000234D461E070E080E090E040
:10050000FFD21BB98FEF8AB986DF1BB81AB8C1308A
:10051000D10539F0C230D10549F0CD2B71F460E03E
:1005200001C061E088E31CD460E004C060E088E3BF
:1005300017D461E08091000213D461E070E080E0A4
:1005400090E0DED260E08AE00BD461E070E080E011
:1005500090E0D6D261E08AE003D48DE036D4892BD6
:10056000E1F360E088E3FCD360E080910002DF917A
:10057000CF911F91F5C390ED980F9A3028F4282F52
:1005800030E0205331090AC09FEB980F963028F4D1
:10059000282F30E02753310901C00895C90108957B
:1005A000CF93DF931BB81AB861E08CE0A0D360E072
:1005B0008DE09DD361E08BE09AD361E08AE097D330
:1005C00061E088E394D361E088E091D361E08AE35D
:1005D0008ED361E0809101028AD361E086E387D304
:1005E00061E08091000283D361E089E380D360E021
:1005F00087E37DD361E087E3B3D360E086E3B0D3E4
:1006000060E08CE0ADD326E040E855E260E070E0C9
:1006100086EA93E011D562E072E086EA93E07BD649
:100620006FE072E086EA93E076D662E272E086EAF4
:1006300093E071D660E372E086EA93E06CD6C1E0A5
:10064000D2E086EA93E0E9D3892BD9F386EA93E0F6
:10065000FDD3282F99278233910541F083339105EB
:1006600041F0C19749F410929C030CC0C0939C03C5
:1006700009C0D0939C0306C069E472E086EA93E067
:100680004AD6DFCF2223E9F267E672E086EA93E0FA
:100690003ED680919C03813049F028F08230B9F435
:1006A0006EE772E00FC067E772E00CC065E272E0CF
:1006B00086EA93E030D688E3809301028AE3809350
:1006C000000205C086EA93E0DF91CF9124C6DF9156
:1006D000CF910895CF93DF9386EA93E09ED3892B41
:1006E000D9F386EA93E0B2D38837B1F786EA93E08C
:1006F00094D3892BD9F386EA93E0A8D3D82F86EA3E
:1007000093E08BD3892BD9F386EA93E09FD333DF31
:10071000C82F8D2F30DF90E1899FC00D112440E15B
:1007200050E06C2F86EA93E05FD68C2FDF91CF915B
:100730000895CF93DF936AE872E086EA93E0EBD501
:1007400086EA93E0D9D483E08AB91BB887E33DD326
:100750000197E1F364E670E080E090E0D1D187E3B7
:1007600034D3892B99F71BB81AB860E08091010245
:10077000F7D260E08AE3F4D260E088E0F1D260E092
:1007800088E3EED260E080910002EAD260E08AE085
:10079000E7D260E08BE0E4D280919C03823061F488
:1007A00060E08AE3DDD260E088E0DAD261E08DE0EB
:1007B0009ED260E08DE0D4D261E08CE0D1D280E5C1
:1007C00090E0D5D161E086E3CBD280919C0382306A
:1007D00031F481E090E0CBD160E08DE088D28AE016
:1007E00090E0C5D161E08BE0BBD261E08AE0B8D295
:1007F00061E070E080E090E083D180919C038230E2
:10080000A1F46CE484E053DD68E680E050DD6CE642
:1008100080E04DDDC82F6CE484E049DD6AE780E0CC
:1008200046DD6EE780E043DD07C080E090E01EDE3D
:10083000C82F81E090E01ADED82F26E040E855E28C
:1008400060E070E086EA93E0F7D36EE873E086EA52
:1008500093E05DD56EEA72E086EA93E05CD560E3F2
:1008600073E086EA93E053D540E150E06C2F86EACE
:1008700093E0BAD56DE373E086EA93E048D540E1B2
:1008800050E06D2F86EA93E0AFD56EE873E086EA1C
:1008900093E03DD564EC72E086EA93E038D51ADF48
:1008A000C82F6FEE72E086EA93E031D513DFD82FC0
:1008B0009091C00090649093C0006AE173E086EA72
:1008C00093E029D58091C00086FFFCCF86EA93E0B3
:1008D00013D480919C03823009F035C06CE480E42D
:1008E00051DD6CE28C2F4EDD64E680E04BDD6CE682
:1008F00080E048DD8DE069D2892BE1F36CE480E48F
:1009000041DD6CE28D2F3EDD64E780E03BDD6CE78E
:1009100080E038DD8DE059D2892BE1F36CE484E08E
:10092000C6DC68E680E0C3DC6CE680E0C0DCD82F83
:100930006CE484E0BCDC6AE780E0B9DC6EE780E070
:10094000B6DCC82F13C061E070E08D2FBDDD60E024
:1009500070E08C2FB9DD80E090E088DDD82F81E059
:1009600090E084DDC82F61E08BE0FAD126E040E81A
:1009700055E260E070E086EA93E05ED36EE873E0F3
:1009800086EA93E0C4D46BE273E086EA93E0BFD4D6
:1009900040E150E06D2F86EA93E026D568E373E0EE
:1009A00086EA93E0B4D440E150E06C2F86EA93E00D
:1009B0001BD565E473E086EA93E0ADD46EE873E09E
:1009C00086EA93E0A4D464E573E086EA93E0A3D4D6
:1009D0006EE873E086EA93E09AD41BB81AB860E038
:1009E00086E3BED161E070E080E090E089D060E015
:1009F0008BE0B6D160E08AE0B3D160E08091010283
:100A0000AFD160E08AE3ACD160E088E0A9D160E0DA
:100A100088E3A6D160E080910002A2D160E08CE082
:100A2000DF91CF919DC11F920F920FB60F921124AB
:100A30002F933F938F939F93AF93BF9380919E0388
:100A400090919F03A091A003B091A10330919D03C9
:100A500023E0230F2D3720F40196A11DB11D05C001
:100A600026E8230F0296A11DB11D20939D038093BC
:100A70009E0390939F03A093A003B093A103809142
:100A8000A2039091A303A091A403B091A5030196A2
:100A9000A11DB11D8093A2039093A303A093A4036F
:100AA000B093A503BF91AF919F918F913F912F91EB
:100AB0000F900FBE0F901F9018953FB7F89480913C
:100AC000A2039091A303A091A403B091A50326B51E
:100AD000A89B05C02F3F19F00196A11DB11D3FBF76
:100AE0006627782F892F9A2F620F711D811D911D06
:100AF00042E0660F771F881F991F4A95D1F7089526
:100B00008F929F92AF92BF92CF92DF92EF92FF921D
:100B10006B017C01D2DF4B015C01C114D104E10403
:100B2000F104E1F081D4C9DF681979098A099B09C8
:100B3000683E73408105910580F321E0C21AD10817
:100B4000E108F10888EE880E83E0981EA11CB11C14
:100B5000C114D104E104F10431F7DFCFFF90EF902D
:100B6000DF90CF90BF90AF909F908F90089582308C
:100B7000910538F0880F991F880F991F05970197E5
:100B8000F1F70895789484B5826084BD84B581605E
:100B900084BD85B5826085BD85B5816085BDEEE685
:100BA000F0E0808181608083E1E8F0E01082808164
:100BB00082608083808181608083E0E8F0E08081D2
:100BC00081608083E1EBF0E0808184608083E0EBF2
:100BD000F0E0808181608083E1E9F0E080818260E3
:100BE0008083808181608083E0E9F0E080818160A2
:100BF0008083E1EAF0E0808182608083808181608F
:100C00008083E0EAF0E0808181608083E1E2F1E0CE
:100C1000808182608083808181608083E0E2F1E076
:100C2000808181608083EAE7F0E080818460808356
:100C30008081826080838081816080838081806800
:100C400080831092C100089590E0FC013197E23159
:100C5000F10508F04BC0EE58FF4F09C480918000A9
:100C60008F7703C0809180008F7D809380000895EE
:100C700080918000877FF9CF84B58F7702C084B5DB
:100C80008F7D84BD08958091B0008F7703C08091DF
:100C9000B0008F7D8093B0000895809190008F7791
:100CA00007C0809190008F7D03C080919000877F66
:100CB0008093900008958091A0008F7707C0809165
:100CC000A0008F7D03C08091A000877F8093A0004B
:100CD0000895809120018F7707C0809120018F7D3A
:100CE00003C080912001877F809320010895CF93D6
:100CF000DF9390E0FC01E25BFE4F2491FC01EC5697
:100D0000FE4F8491882349F190E0880F991FFC01E0
:100D1000E25FFD4FA591B4918C509E4FFC01C591AF
:100D2000D4919FB7611108C0F8948C9120958223CB
:100D30008C93888182230AC0623051F4F8948C919C
:100D4000322F309583238C938881822B888304C033
:100D5000F8948C91822B8C939FBFDF91CF91089553
:100D60000F931F93CF93DF931F92CDB7DEB7282F3A
:100D700030E0F901E85FFE4F8491F901E25BFE4F3C
:100D80001491F901EC56FE4F04910023C1F0882321
:100D900019F0698359DF6981E02FF0E0EE0FFF1F42
:100DA000EC50FE4FA591B4919FB7F8948C916111CE
:100DB00003C01095812301C0812B8C939FBF0F909E
:100DC000DF91CF911F910F910895CF93DF93282F3B
:100DD00030E0F901E85FFE4F8491F901E25BFE4FDC
:100DE000D491F901EC56FE4FC491CC2389F08111C6
:100DF0002BDFEC2FF0E0EE0FFF1FE652FE4FA59128
:100E0000B4912C912D2381E090E021F480E002C088
:100E100080E090E0DF91CF910895FC01818D228DDB
:100E200090E0805C9F4F821B91098F7399270895F2
:100E3000FC01918D828D981731F0828DE80FF11DA4
:100E4000858D90E008958FEF9FEF0895FC01918DBF
:100E5000828D981761F0828DDF01A80FB11D5D961C
:100E60008C91928D9F5F9F73928F90E008958FEF8A
:100E70009FEF08958DEF98E0892B39F080E090E0A6
:100E8000892B19F0BAD1811125C080E090E0892B1F
:100E900041F080E090E0892B21F00E940000811158
:100EA0001CC080E090E0892B41F080E090E0892B2D
:100EB00021F00E940000811113C080E090E0892B96
:100EC000A1F080E090E0892B81F00E940000811168
:100ED0000AC008950E940000D8CF0E940000E1CF10
:100EE0000E940000EACF0C9400000895FC01848D5C
:100EF000DF01A80FB11DA35ABF4F2C91848D90E044
:100F000001968F739927848FA689B7892C93A0891E
:100F1000B1898C9180648C93938D848D981306C0D5
:100F20000288F389E02D80818F7D80830895CF939F
:100F3000DF93EC01888D8823C1F0EA89FB898081E9
:100F400085FD05C0A889B9898C9186FD0EC00FB6B4
:100F500007FCF5CF808185FFF2CFA889B9898C91F4
:100F600085FFEDCFCE01C2DFE8CFDF91CF910895AD
:100F7000CF92DF92FF920F931F93CF93DF931F9235
:100F8000CDB7DEB76C0181E0D60158968C935897A7
:100F90005B969C915B975C968C915C97981307C0CD
:100FA0005096ED91FC915197808185FD2DC0F60101
:100FB000038D10E00F5F1F4F0F731127F02EF60106
:100FC000848DF81210C00FB607FCF9CFD6015096E9
:100FD000ED91FC915197808185FFF1CFC601698326
:100FE00085DF6981ECCF838DE80FF11DE35AFF4F58
:100FF0006083D6015B960C935B975296ED91FC91C2
:101000005397808180620CC0D6015696ED91FC9179
:10101000579760835096ED91FC9151978081806441
:10102000808381E090E00F90DF91CF911F910F912D
:10103000FF90DF90CF900895BF92CF92DF92EF9212
:10104000FF92CF93DF93EC016A017B01B22EE88916
:10105000F98982E08083411581EE580761057105A9
:1010600099F060E079E08DE390E0A7019601DDD191
:1010700021503109410951095695479537952795D2
:10108000211580E1380790F0E889F989108260E83D
:1010900074E88EE190E0A7019601C7D12150310993
:1010A000410951095695479537952795EC85FD855A
:1010B0003083EE85FF852083188EEC89FD89B08210
:1010C000EA89FB89808180618083EA89FB8980814C
:1010D00088608083EA89FB89808180688083EA89CF
:1010E000FB8980818F7D8083DF91CF91FF90EF908E
:1010F000DF90CF90BF900895CF93DF93EC01E8810C
:10110000F9810284F385E02D1995EA89FB898081B4
:101110008F7E8083EA89FB898081877F8083EA894B
:10112000FB8980818F778083EA89FB8980818F7D2D
:1011300080838A8D898FDF91CF9108951F920F92BE
:101140000FB60F9211240BB60F922F938F939F938C
:10115000EF93FF93E091B603F091B7038081E091A4
:10116000BC03F091BD0382FD12C090818091BF034A
:101170008F5F8F732091C003821751F0E091BF03FE
:10118000F0E0EA55FC4F958F8093BF0301C080814A
:10119000FF91EF919F918F912F910F900BBE0F9028
:1011A0000FBE0F901F9018951F920F920FB60F92BF
:1011B00011240BB60F922F933F934F935F936F932E
:1011C0007F938F939F93AF93BF93EF93FF9386EAA1
:1011D00093E08CDEFF91EF91BF91AF919F918F9142
:1011E0007F916F915F914F913F912F910F900BBE27
:1011F0000F900FBE0F901F90189586EA93E00DDEBA
:1012000021E0892B09F420E0822F08951092A90390
:101210001092A80388EE93E0A0E0B0E08093AA03C8
:101220009093AB03A093AC03B093AD0381E893E03C
:101230009093A7038093A60385EC90E09093B3036B
:101240008093B20384EC90E09093B5038093B40351
:1012500080EC90E09093B7038093B60381EC90E02C
:101260009093B9038093B80382EC90E09093BB0312
:101270008093BA0386EC90E09093BD038093BC0307
:101280001092BF031092C0031092C1031092C203C8
:101290000895CF92DF92EF92FF920F931F93CF9317
:1012A000DF937C016A01EB0100E010E00C151D05E5
:1012B00071F06991D701ED91FC910190F081E02DE1
:1012C000C7011995892B19F00F5F1F4FEFCFC80188
:1012D000DF91CF911F910F91FF90EF90DF90CF9012
:1012E00008956115710581F0DB010D900020E9F78B
:1012F000AD0141505109461B570BDC01ED91FC91AA
:101300000280F381E02D199480E090E00895E9CF08
:101310006DE873E0E6CF0F931F93CF93DF93EC015B
:10132000E0DF8C01CE01F4DF800F911FDF91CF91C0
:101330001F910F9108958F929F92AF92BF92DF926B
:10134000EF92FF920F931F93CF93DF93CDB7DEB74A
:10135000A1970FB6F894DEBF0FBECDBF7C01F42F6E
:10136000D52ECB0119A2223008F42AE08E010F5DA0
:101370001F4F822E912CA12CB12C6F2F7D2DA501FA
:10138000940153D0F22FD32ECA01015011096A30B3
:1013900014F4E0E301C0E7E3E60FD801EC93232B5C
:1013A000242B252B51F7B801C7019BDFA1960FB65F
:1013B000F894DEBF0FBECDBFDF91CF911F910F918B
:1013C000FF90EF90DF90BF90AF909F908F90089527
:1013D0002115310541F4DC01ED91FC910190F08182
:1013E000E02D642F1994A7CF0F931F93CF93DF9312
:1013F000EC019A01462F50E060E070E0E9DF8C01DB
:10140000CE0186DF800F911FDF91CF911F910F9149
:1014100008950895B7DBFDDFC3D8CAE3D7E089D9C3
:101420002097E9F327DDFBCF0895A1E21A2EAA1B2E
:10143000BB1BFD010DC0AA1FBB1FEE1FFF1FA21784
:10144000B307E407F50720F0A21BB30BE40BF50B81
:10145000661F771F881F991F1A9469F7609570950A
:10146000809590959B01AC01BD01CF010895EE0FD1
:10147000FF1F0590F491E02D19940790F691E02D4F
:061480001994F894FFCF5F
:10148600093B53656C656374206D6F64653A003182
:101496003A2041546D656761202832382D70696E97
:1014A6002900323A20415474696E7932333133005F
:1014B600333A20415474696E792028382D70696E4C
:1014C60029202F204856535000496E76616C696476
:1014D60020726573706F6E73652E202054727920AA
:1014E600616761696E2E0053656C6563746564207F
:1014F6006D6F64653A200041544D454741004154A3
:1015060074696E792F4856535000496E736572742C
:10151600207461726765742041565220616E6420A2
:10152600707265737320627574746F6E2E004578E1
:10153600697374696E6720667573652076616C756C
:1015460065733A00456E74657220646573697265E9
:1015560064204C46555345206865782076616C7545
:1015660065202869652E2030783632293A200045D4
:101576006E746572206465736972656420484655A9
:101586005345206865782076616C75652028696505
:101596002E2030784446293A20004275726E696ED4
:1015A600672066757365732E2E2E00526561642062
:1015B6004C465553453A20005265616420484655CD
:1015C60053453A20004275726E20636F6D706C65EC
:1015D60074652E004974206973206E6F77207361DD
:1015E600666520746F2072656D6F76652074686518
:1015F60020746172676574204156522E0000000007
:1016060000B80749090D072607180797070D0A00AE
:0C1616006E616E00696E66006F76660003
:00000001FF
