:1000000014C1000043C1000041C100003FC1000015
:100010003DC100003BC1000039C1000037C10000F4
:1000200035C1000033C1000031C100002FC1000004
:100030002DC100002BC1000029C1000027C1000014
:1000400025C1000023C1000021C100001FC1000024
:100050001DC100001BC1000019C10000E4C4000064
:1000600015C100000C949E080C94D4080FC1000028
:100070000DC100000BC1000009C1000007C1000054
:1000800005C1000003C1000001C10000FFC0000065
:10009000FDC00000FBC00000F9C00000F7C0000078
:1000A000F5C00000F3C00000F1C00000EFC0000088
:1000B000EDC00000EBC00000E9C00000E7C0000098
:1000C000E5C00000E3C00000E1C00000DFC00000A8
:1000D000DDC00000DBC00000D9C00000D7C00000B8
:1000E000D5C000003C063F062E06320638067606CE
:1000F000430647064D06510655065B065F06630636
:10010000760669066D06710600000A0B02090C0DE1
:100110000E080703040100000000000000000000BA
:1001200000000000000000000000000000000000CF
:10013000000000001211100000000000000000008C
:1001400000000000000000000000000000000102AC
:1001500010202008081020401020408002010201D9
:100160000804020101020408102040808040201091
:1001700008040201800402018040201008040201EA
:100180000804020101020408102040800102040852
:10019000102040800505050507050808080802022B
:1001A00002020A0A08080404040401010101010111
:1001B00001010303030303030303040707070C0CF4
:1001C0000C0C0C0C0C0C02020202060606060606BB
:1001D00006060B0B0B0B0B0B0B0B00002000230078
:1001E000260029002C002F0032000001000003012E
:1001F0000601090100002200250028002B002E0026
:100200003100340002010000050108010B0100006B
:100210002100240027002A002D00300033000101B6
:100220000000040107010A01060911241FBECFEFD7
:10023000D1E2DEBFCDBF00E00CBF13E0A0E0B2E032
:10024000E6E8F4E100E00BBF02C007900D92AC3984
:10025000B107D9F724E0ACE9B3E001C01D92A334A3
:10026000B207E1F712E0CAE2D2E000E006C022974E
:100270000109FE010BBF0E943D0AC832D10780E090
:100280000807A9F70E940A0A0C94410AB9CE61E056
:1002900070E080E090E034D461E088E361D561E013
:1002A00070E080E090E02CD460E088E359C5BF9214
:1002B000CF92DF92EF92FF920F931F93CF93DF9332
:1002C000082FE62E60E088E34BD560E08AE348D54E
:1002D00060E088E045D5DBDF8DE077D5019711F050
:1002E000B12C02C090E8B92EC0E0D0E010E0F12CB3
:1002F00080E4C82ED12C98010C2E01C0220F0A9444
:10030000EAF727FF02C061E001C060E08AE328D578
:1003100097010C2E01C0220F0A94EAF727FF02C0B2
:1003200061E001C060E088E01BD5B1DFC730D105D6
:1003300061F08DE04AD5019741F496010C2E02C080
:10034000359527950A94E2F7B22A2196C830D1054F
:1003500091F660E08AE304D560E088E001D597DF9C
:1003600060E08AE3FDD460E088E0FAD490DF8B2D72
:10037000DF91CF911F910F91FF90EF90DF90CF9081
:10038000BF900895EF92FF920F931F93CF93DF9347
:10039000082FE62E60E088E3E3D460E08AE3E0D44F
:1003A00060E088E0DDD473DFC0E0D0E010E0F12C45
:1003B000C8010C2E01C0880F0A94EAF787FF02C01B
:1003C00061E001C060E08AE3CBD4C7010C2E01C01C
:1003D000880F0A94EAF787FF02C061E001C060E07D
:1003E00088E0BED454DF2196C830D10509F760E01B
:1003F0008AE3B6D460E088E0B3D449DF60E08AE302
:10040000AFD460E088E0ACD4DF91CF911F910F9121
:10041000FF90EF903CCF61E070E080E090E070D31F
:1004200061E089E39DD461E070E080E090E068D312
:1004300060E089E395C4CF93C82F61E08AE390D44C
:1004400060E088E08DD460E088E38AD480919C03EA
:10045000813021F060E08091000282D4CBB98FEF2F
:100460008AB9D9DF1BB81AB8CF910895CF93DF931B
:10047000EC0184E0E0DF1BB81AB8C130D10539F0D7
:10048000C230D10551F0CD2B79F460E007C061E0B6
:100490008091000265D461E005C061E080910002B6
:1004A0005FD460E088E35CD460E08BE059D461E025
:1004B00070E080E090E024D3C9B161E08BE050D4DB
:1004C0008C2FDF91CF9108951F93CF93DF93182F37
:1004D000EB0180E4B0DF60E08AE342D461E088E0D1
:1004E0003FD460E088E33CD480919C03813021F0CC
:1004F00060E08091000234D461E070E080E090E040
:10050000FFD21BB98FEF8AB986DF1BB81AB8C1308A
:10051000D10539F0C230D10549F0CD2B71F460E03E
:1005200001C061E088E31CD460E004C060E088E3BF
:1005300017D461E08091000213D461E070E080E0A4
:1005400090E0DED260E08AE00BD461E070E080E011
:1005500090E0D6D261E08AE003D48DE036D4892BD6
:10056000E1F360E088E3FCD360E080910002DF917A
:10057000CF911F91F5C390ED980F9A3028F4282F52
:1005800030E0205331090AC09FEB980F963028F4D1
:10059000282F30E02753310901C00895C90108957B
:1005A000CF93DF931BB81AB861E08CE0A0D360E072
:1005B0008DE09DD361E08BE09AD361E08AE097D330
:1005C00061E088E394D361E088E091D361E08AE35D
:1005D0008ED361E0809101028AD361E086E387D304
:1005E00061E08091000283D361E089E380D360E021
:1005F00087E37DD361E087E3B3D360E086E3B0D3E4
:1006000060E08CE0ADD326E040E855E260E070E0C9
:1006100086EA93E011D562E072E086EA93E07BD649
:100620006FE072E086EA93E076D662E272E086EAF4
:1006300093E071D660E372E086EA93E06CD6C1E0A5
:10064000D2E086EA93E0E9D3892BD9F386EA93E0F6
:10065000FDD3282F99278233910541F083339105EB
:1006600041F0C19749F410929C030CC0C0939C03C5
:1006700009C0D0939C0306C069E472E086EA93E067
:100680004AD6DFCF2223E9F267E672E086EA93E0FA
:100690003ED680919C03813049F028F08230B9F435
:1006A0006EE772E00FC067E772E00CC065E272E0CF
:1006B00086EA93E030D688E3809301028AE3809350
:1006C000000205C086EA93E0DF91CF9124C6DF9156
:1006D000CF910895CF93DF9386EA93E09ED3892B41
:1006E000D9F386EA93E0B2D38837B1F786EA93E08C
:1006F00094D3892BD9F386EA93E0A8D3D82F86EA3E
:1007000093E08BD3892BD9F386EA93E09FD333DF31
:10071000C82F8D2F30DF90E1899FC00D112440E15B
:1007200050E06C2F86EA93E05FD68C2FDF91CF915B
:100730000895CF93DF936AE872E086EA93E0EBD501
:1007400086EA93E0D9D483E08AB91BB887E33DD326
:100750000197E1F364E670E080E090E0D1D187E3B7
:1007600034D3892B99F71BB81AB860E08091010245
:10077000F7D260E08AE3F4D260E088E0F1D260E092
:1007800088E3EED260E080910002EAD260E08AE085
:10079000E7D260E08BE0E4D280919C03823061F488
:1007A00060E08AE3DDD260E088E0DAD261E08DE0EB
:1007B0009ED260E08DE0D4D261E08CE0D1D280E5C1
:1007C00090E0D5D161E086E3CBD280919C0382306A
:1007D00031F481E090E0CBD160E08DE088D28AE016
:1007E00090E0C5D161E08BE0BBD261E08AE0B8D295
:1007F00061E070E080E090E083D180919C038230E2
:10080000A1F46CE484E053DD68E680E050DD6CE642
:1008100080E04DDDC82F6CE484E049DD6AE780E0CC
:1008200046DD6EE780E043DD07C080E090E01EDE3D
:10083000C82F81E090E01ADED82F26E040E855E28C
:1008400060E070E086EA93E0F7D36EE873E086EA52
:1008500093E05DD56EEA72E086EA93E05CD560E3F2
:1008600073E086EA93E053D540E150E06C2F86EACE
:1008700093E0BAD56DE373E086EA93E048D540E1B2
:1008800050E06D2F86EA93E0AFD56EE873E086EA1C
:1008900093E03DD564EC72E086EA93E038D51ADF48
:1008A000C82F6FEE72E086EA93E031D513DFD82FC0
:1008B0009091C00090649093C0006AE173E086EA72
:1008C00093E029D58091C00086FFFCCF86EA93E0B3
:1008D00013D480919C03823009F035C06CE480E42D
:1008E00051DD6CE28C2F4EDD64E680E04BDD6CE682
:1008F00080E048DD8DE069D2892BE1F36CE480E48F
:1009000041DD6CE28D2F3EDD64E780E03BDD6CE78E
:1009100080E038DD8DE059D2892BE1F36CE484E08E
:10092000C6DC68E680E0C3DC6CE680E0C0DCD82F83
:100930006CE484E0BCDC6AE780E0B9DC6EE780E070
:10094000B6DCC82F13C061E070E08D2FBDDD60E024
:1009500070E08C2FB9DD80E090E088DDD82F81E059
:1009600090E084DDC82F61E08BE0FAD126E040E81A
:1009700055E260E070E086EA93E05ED36EE873E0F3
:1009800086EA93E0C4D46BE273E086EA93E0BFD4D6
:1009900040E150E06D2F86EA93E026D568E373E0EE
:1009A00086EA93E0B4D440E150E06C2F86EA93E00D
:1009B0001BD565E473E086EA93E0ADD46EE873E09E
:1009C00086EA93E0A4D464E573E086EA93E0A3D4D6
:1009D0006EE873E086EA93E09AD41BB81AB860E038
:1009E00086E3BED161E070E080E090E089D060E015
:1009F0008BE0B6D160E08AE0B3D160E08091010283
:100A0000AFD160E08AE3ACD160E088E0A9D160E0DA
:100A100088E3A6D160E080910002A2D160E08CE082
:100A2000DF91CF919DC11F920F920FB60F921124AB
:100A30002F933F938F939F93AF93BF9380919E0388
:100A400090919F03A091A003B091A10330919D03C9
:100A500023E0230F2D3720F40196A11DB11D05C001
:100A600026E8230F0296A11DB11D20939D038093BC
:100A70009E0390939F03A093A003B093A103809142
:100A8000A2039091A303A091A403B091A5030196A2
:100A9000A11DB11D8093A2039093A303A093A4036F
:100AA000B093A503BF91AF919F918F913F912F91EB
:100AB0000F900FBE0F901F9018953FB7F89480913C
:100AC000A2039091A303A091A403B091A50326B51E
:100AD000A89B05C02F3F19F00196A11DB11D3FBF76
:100AE0006627782F892F9A2F620F711D811D911D06
:100AF00042E0660F771F881F991F4A95D1F7089526
:100B00008F929F92AF92BF92CF92DF92EF92FF921D
:100B10006B017C01D2DF4B015C01C114D104E10403
:100B2000F104E1F081D4C9DF681979098A099B09C8
:100B3000683E73408105910580F321E0C21AD10817
:100B4000E108F10888EE880E83E0981EA11CB11C14
:100B5000C114D104E104F10431F7DFCFFF90EF902D
:100B6000DF90CF90BF90AF909F908F90089582308C
:100B7000910538F0880F991F880F991F05970197E5
:100B8000F1F70895789484B5826084BD84B581605E
:100B900084BD85B5826085BD85B5816085BDEEE685
:100BA000F0E0808181608083E1E8F0E01082808164
:100BB00082608083808181608083E0E8F0E08081D2
:100BC00081608083E1EBF0E0808184608083E0EBF2
:100BD000F0E0808181608083E1E9F0E080818260E3
:100BE0008083808181608083E0E9F0E080818160A2
:100BF0008083E1EAF0E0808182608083808181608F
:100C00008083E0EAF0E0808181608083E1E2F1E0CE
:100C1000808182608083808181608083E0E2F1E076
:100C2000808181608083EAE7F0E080818460808356
:100C30008081826080838081816080838081806800
:100C400080831092C100089590E0FC013197E23159
:100C5000F10508F04BC0EE58FF4F09C480918000A9
:100C60008F7703C0809180008F7D809380000895EE
:100C700080918000877FF9CF84B58F7702C084B5DB
:100C80008F7D84BD08958091B0008F7703C08091DF
:100C9000B0008F7D8093B0000895809190008F7791
:100CA00007C0809190008F7D03C080919000877F66
:100CB0008093900008958091A0008F7707C0809165
:100CC000A0008F7D03C08091A000877F8093A0004B
:100CD0000895809120018F7707C0809120018F7D3A
:100CE00003C080912001877F809320010895CF93D6
:100CF000DF9390E0FC01E25BFE4F2491FC01EC5697
:100D0000FE4F8491882349F190E0880F991FFC01E0
:100D1000E25FFD4FA591B4918C509E4FFC01C591AF
:100D2000D4919FB7611108C0F8948C9120958223CB
:100D30008C93888182230AC0623051F4F8948C919C
:100D4000322F309583238C938881822B888304C033
:100D5000F8948C91822B8C939FBFDF91CF91089553
:100D60000F931F93CF93DF931F92CDB7DEB7282F3A
:100D700030E0F901E85FFE4F8491F901E25BFE4F3C
:100D80001491F901EC56FE4F04910023C1F0882321
:100D900019F0698359DF6981E02FF0E0EE0FFF1F42
:100DA000EC50FE4FA591B4919FB7F8948C916111CE
:100DB00003C01095812301C0812B8C939FBF0F909E
:100DC000DF91CF911F910F910895CF93DF93282F3B
:100DD00030E0F901E85FFE4F8491F901E25BFE4FDC
:100DE000D491F901EC56FE4FC491CC2389F08111C6
:100DF0002BDFEC2FF0E0EE0FFF1FE652FE4FA59128
:100E0000B4912C912D2381E090E021F480E002C088
:100E100080E090E0DF91CF910895FC01818D228DDB
:100E200090E0805C9F4F821B91098F7399270895F2
:100E3000FC01918D828D981731F0828DE80FF11DA4
:100E4000858D90E008958FEF9FEF0895FC01918DBF
:100E5000828D981761F0828DDF01A80FB11D5D961C
:100E60008C91928D9F5F9F73928F90E008958FEF8A
:100E70009FEF08958DEF98E0892B39F080E090E0A6
:100E8000892B19F0BAD1811125C080E090E0892B1F
:100E900041F080E090E0892B21F00E940000811158
:100EA0001CC080E090E0892B41F080E090E0892B2D
:100EB00021F00E940000811113C080E090E0892B96
:100EC000A1F080E090E0892B81F00E940000811168
:100ED0000AC008950E940000D8CF0E940000E1CF10
:100EE0000E940000EACF0C9400000895FC01848D5C
:100EF000DF01A80FB11DA35ABF4F2C91848D90E044
:100F000001968F739927848FA689B7892C93A0891E
:100F1000B1898C9180648C93938D848D981306C0D5
:100F20000288F389E02D80818F7D80830895CF939F
:100F3000DF93EC01888D8823C1F0EA89FB898081E9
:100F400085FD05C0A889B9898C9186FD0EC00FB6B4
:100F500007FCF5CF808185FFF2CFA889B9898C91F4
:100F600085FFEDCFCE01C2DFE8CFDF91CF910895AD
:100F7000CF92DF92FF920F931F93CF93DF931F9235
:100F8000CDB7DEB76C0181E0D60158968C935897A7
:100F90005B969C915B975C968C915C97981307C0CD
:100FA0005096ED91FC915197808185FD2DC0F60101
:100FB000038D10E00F5F1F4F0F731127F02EF60106
:100FC000848DF81210C00FB607FCF9CFD6015096E9
:100FD000ED91FC915197808185FFF1CFC601698326
:100FE00085DF6981ECCF838DE80FF11DE35AFF4F58
:100FF0006083D6015B960C935B975296ED91FC91C2
:101000005397808180620CC0D6015696ED91FC9179
:10101000579760835096ED91FC9151978081806441
:10102000808381E090E00F90DF91CF911F910F912D
:10103000FF90DF90CF900895BF92CF92DF92EF9212
:10104000FF92CF93DF93EC016A017B01B22EE88916
:10105000F98982E08083411581EE580761057105A9
:1010600099F060E079E08DE390E0A7019601DDD191
:1010700021503109410951095695479537952795D2
:10108000211580E1380790F0E889F989108260E83D
:1010900074E88EE190E0A7019601C7D12150310993
:1010A000410951095695479537952795EC85FD855A
:1010B0003083EE85FF852083188EEC89FD89B08210
:1010C000EA89FB89808180618083EA89FB8980814C
:1010D00088608083EA89FB89808180688083EA89CF
:1010E000FB8980818F7D8083DF91CF91FF90EF908E
:1010F000DF90CF90BF900895CF93DF93EC01E8810C
:10110000F9810284F385E02D1995EA89FB898081B4
:101110008F7E8083EA89FB898081877F8083EA894B
:10112000FB8980818F778083EA89FB8980818F7D2D
:1011300080838A8D898FDF91CF9108951F920F92BE
:101140000FB60F9211240BB60F922F938F939F938C
:10115000EF93FF93E091B603F091B7038081E091A4
:10116000BC03F091BD0382FD12C090818091BF034A
:101170008F5F8F732091C003821751F0E091BF03FE
:10118000F0E0EA55FC4F958F8093BF0301C080814A
:10119000FF91EF919F918F912F910F900BBE0F9028
:1011A0000FBE0F901F9018951F920F920FB60F92BF
:1011B00011240BB60F922F933F934F935F936F932E
:1011C0007F938F939F93AF93BF93EF93FF9386EAA1
:1011D00093E08CDEFF91EF91BF91AF919F918F9142
:1011E0007F916F915F914F913F912F910F900BBE27
:1011F0000F900FBE0F901F90189586EA93E00DDEBA
:1012000021E0892B09F420E0822F08951092A90390
:101210001092A80388EE93E0A0E0B0E08093AA03C8
:101220009093AB03A093AC03B093AD0381E893E03C
:101230009093A7038093A60385EC90E09093B3036B
:101240008093B20384EC90E09093B5038093B40351
:1012500080EC90E09093B7038093B60381EC90E02C
:101260009093B9038093B80382EC90E09093BB0312
:101270008093BA0386EC90E09093BD038093BC0307
:101280001092BF031092C0031092C1031092C203C8
:101290000895CF92DF92EF92FF920F931F93CF9317
:1012A000DF937C016A01EB0100E010E00C151D05E5
:1012B00071F06991D701ED91FC910190F081E02DE1
:1012C000C7011995892B19F00F5F1F4FEFCFC80188
:1012D000DF91CF911F910F91FF90EF90DF90CF9012
:1012E00008956115710581F0DB010D900020E9F78B
:1012F000AD0141505109461B570BDC01ED91FC91AA
:101300000280F381E02D199480E090E00895E9CF08
:101310006DE873E0E6CF0F931F93CF93DF93EC015B
:10132000E0DF8C01CE01F4DF800F911FDF91CF91C0
:101330001F910F9108958F929F92AF92BF92DF926B
:10134000EF92FF920F931F93CF93DF93CDB7DEB74A
:10135000A1970FB6F894DEBF0FBECDBF7C01F42F6E
:10136000D52ECB0119A2223008F42AE08E010F5DA0
:101370001F4F822E912CA12CB12C6F2F7D2DA501FA
:10138000940153D0F22FD32ECA01015011096A30B3
:1013900014F4E0E301C0E7E3E60FD801EC93232B5C
:1013A000242B252B51F7B801C7019BDFA1960FB65F
:1013B000F894DEBF0FBECDBFDF91CF911F910F918B
:1013C000FF90EF90DF90BF90AF909F908F90089527
:1013D0002115310541F4DC01ED91FC910190F08182
:1013E000E02D642F1994A7CF0F931F93CF93DF9312
:1013F000EC019A01462F50E060E070E0E9DF8C01DB
:10140000CE0186DF800F911FDF91CF911F910F9149
:1014100008950895B7DBFDDFC3D8CAE3D7E089D9C3
:101420002097E9F327DDFBCF0895A1E21A2EAA1B2E
:10143000BB1BFD010DC0AA1FBB1FEE1FFF1FA21784
:10144000B307E407F50720F0A21BB30BE40BF50B81
:10145000661F771F881F991F1A9469F7609570950A
:10146000809590959B01AC01BD01CF010895EE0FD1
:10147000FF1F0590F491E02D19940790F691E02D4F
:061480001994F894FFCF5F
:10148600093B53656C656374206D6F64653A003182
:101496003A2041546D656761202832382D70696E97
:1014A6002900323A20415474696E7932333133005F
:1014B600333A20415474696E792028382D70696E4C
:1014C60029202F204856535000496E76616C696476
:1014D60020726573706F6E73652E202054727920AA
:1014E600616761696E2E0053656C6563746564207F
:1014F6006D6F64653A200041544D454741004154A3
:1015060074696E792F4856535000496E736572742C
:10151600207461726765742041565220616E6420A2
:10152600707265737320627574746F6E2E004578E1
:10153600697374696E6720667573652076616C756C
:1015460065733A00456E74657220646573697265E9
:1015560064204C46555345206865782076616C7545
:1015660065202869652E2030783632293A200045D4
:101576006E746572206465736972656420484655A9
:101586005345206865782076616C75652028696505
:101596002E2030784446293A20004275726E696ED4
:1015A600672066757365732E2E2E00526561642062
:1015B6004C465553453A20005265616420484655CD
:1015C60053453A20004275726E20636F6D706C65EC
:1015D60074652E004974206973206E6F77207361DD
:1015E600666520746F2072656D6F76652074686518
:1015F60020746172676574204156522E0000000007
:1016060000B80749090D072607180797070D0A00AE
:0C1616006E616E00696E66006F76660003
:020000023000CC
:10E000000D9489F10D94B2F10D94B2F10D94B2F129
:10E010000D94B2F10D94B2F10D94B2F10D94B2F1F0
:10E020000D94B2F10D94B2F10D94B2F10D94B2F1E0
:10E030000D94B2F10D94B2F10D94B2F10D94B2F1D0
:10E040000D94B2F10D94B2F10D94B2F10D94B2F1C0
:10E050000D94B2F10D94B2F10D94B2F10D94B2F1B0
:10E060000D94B2F10D94B2F10D94B2F10D94B2F1A0
:10E070000D94B2F10D94B2F10D94B2F10D94B2F190
:10E080000D94B2F10D94B2F10D94B2F10D94B2F180
:10E090000D94B2F10D94B2F10D94B2F10D94B2F170
:10E0A0000D94B2F10D94B2F10D94B2F10D94B2F160
:10E0B0000D94B2F10D94B2F10D94B2F10D94B2F150
:10E0C0000D94B2F10D94B2F10D94B2F10D94B2F140
:10E0D0000D94B2F10D94B2F10D94B2F10D94B2F130
:10E0E0000D94B2F141546D656761323536300041AF
:10E0F000726475696E6F206578706C6F72657220DE
:10E1000073746B3530305632206279204D4C530099
:10E11000426F6F746C6F616465723E004875683F52
:10E1200000436F6D70696C6564206F6E203D200048
:10E130004350552054797065202020203D20005FF9
:10E140005F4156525F415243485F5F3D2000415658
:10E1500052204C696243205665723D20004743437C
:10E160002056657273696F6E203D20004350552024
:10E1700049442020202020203D20004C6F7720663D
:10E18000757365202020203D20004869676820665F
:10E190007573652020203D200045787420667573D6
:10E1A00065202020203D20004C6F636B2066757336
:10E1B000652020203D20004D617220203720323024
:10E1C000313300312E362E3800342E332E350056A2
:10E1D00023202020414444522020206F7020636F70
:10E1E00064652020202020696E73747275637469E1
:10E1F0006F6E2061646472202020496E74657272B3
:10E20000757074006E6F20766563746F7200726A49
:10E210006D702020006A6D70200057686174207056
:10E220006F72743A00506F7274206E6F7420737541
:10E2300070706F72746564004D7573742062652030
:10E2400061206C6574746572002000577269747483
:10E25000696E672045450052656164696E672045B7
:10E26000450045452065727220636E743D00504F35
:10E27000525400303D5A65726F2061646472003FF1
:10E280003D43505520737461747300403D454550C3
:10E29000524F4D207465737400423D426C696E6B41
:10E2A000204C454400453D44756D70204545505215
:10E2B0004F4D00463D44756D7020464C415348001B
:10E2C000483D48656C70004C3D4C69737420492F83
:10E2D0004F20506F72747300513D51756974005234
:10E2E0003D44756D702052414D00563D73686F7707
:10E2F00020696E7465727275707420566563746FF0
:10E30000727300593D506F727420626C696E6B00BD
:10E310002A0011241FBECFEFD1E2DEBFCDBF01E046
:10E320000CBF12E0A0E0B2E0EEE1FDEF03E00BBFB6
:10E3300002C007900D92A030B107D9F712E0A0E01B
:10E34000B2E001C01D92AE30B107E1F70F9460F367
:10E350000D948DFE01E20EBF0FEF0DBF11241FBE05
:10E360000D9460F30D9400F020E030E040ED57E0B4
:10E3700005C0FA013197F1F72F5F3F4F2817390792
:10E38000C0F308959C01260F311DC901A0E0B0E043
:10E390002F5F3F4FABBFFC018791882361F08093D3
:10E3A000C6008091C00086FFFCCF8091C0008064D1
:10E3B0008093C000EACF08958DE08093C6008091DD
:10E3C000C00086FFFCCF8091C00080648093C000B5
:10E3D0008AE08093C6008091C00086FFFCCF8091C8
:10E3E000C00080648093C00008950F94C2F10F9420
:10E3F000DCF10895FC019081992359F09093C600B7
:10E400008091C00086FFFCCF8091C0008064809323
:10E41000C0003196992379F70895282F982F929567
:10E420009F70892F805D8A3308F0895F8093C600D2
:10E430008091C00086FFFCCF8091C00080648093F3
:10E44000C000822F8F70982F905D9A3308F0995FEB
:10E450009093C6008091C00086FFFCCF8091C000E1
:10E4600080648093C00008959C01FB01853691056E
:10E470001CF46330710594F0C90164E670E00F94F8
:10E480002EFE605D7F4F6093C6008091C00086FFC6
:10E49000FCCF8091C00080648093C0002B30310598
:10E4A00014F43297B4F0C90164E670E00F942EFEC4
:10E4B0006AE070E00F942EFE605D7F4F6093C600AF
:10E4C0008091C00086FFFCCF8091C0008064809363
:10E4D000C000C9016AE070E00F942EFEC0968093E0
:10E4E000C6008091C00086FFFCCF8091C000806490
:10E4F0008093C00008951F93182F8EE692EE60E07F
:10E500000F94C2F11093C6008091C00086FFFCCF2B
:10E510008091C00080648093C0000F94DCF11F9153
:10E5200008952F923F924F925F926F927F928F92B7
:10E530009F92AF92BF92CF92DF92EF92FF920F9392
:10E540001F93DF93CF93CDB7DEB762970FB6F894E2
:10E55000DEBF0FBECDBF382E622ECA01DB015C01CB
:10E560006D01772420E2222E2E010894411C511CBB
:10E570008BC081E0A81680E0B80681E0C80680E084
:10E58000D80628F0C601AA27BB270F940DF2BB2797
:10E59000AD2D9C2D8B2D0F940DF28A2D0F940DF225
:10E5A0002092C6008091C00086FFFCCF8091C00001
:10E5B00080648093C0009DE29093C6008091C0006B
:10E5C00086FFFCCF8091C00080648093C0002092C1
:10E5D000C6008091C00086FFFCCF8091C00080649F
:10E5E0008093C00019828601750188249924A1E0D6
:10E5F0003A1651F03A1620F0B2E03B1661F409C029
:10E600000BBFF701779007C0C7010F9477FE782EF4
:10E6100002C0F7017080872D0F940DF22092C60082
:10E620008091C00086FFFCCF8091C0008064809301
:10E63000C000872D8052F401EF70F0708F3520F408
:10E64000E40DF51D708204C0E40DF51D8EE280839B
:10E650000894E11CF11C011D111D0894811C911CE2
:10E6600090E18916910409F0C2CF80E190E0A0E02A
:10E67000B0E0A80EB91ECA1EDB1E198AC2010F9493
:10E68000FAF10F94DCF16A94662009F072CF629679
:10E690000FB6F894DEBF0FBECDBFCF91DF911F91B3
:10E6A0000F91FF90EF90DF90CF90BF90AF909F9031
:10E6B0008F907F906F905F904F903F902F90089534
:10E6C0002F923F924F925F926F927F928F929F9282
:10E6D000AF92BF92CF92DF92EF92FF920F931F9370
:10E6E000DF93CF93CDB7DEB7CD53D1400FB6F894BB
:10E6F000DEBF0FBECDBF01E20EBF0FEF0DBF94B75F
:10E70000F894A89514BE80916000886180936000A1
:10E7100010926000789493FF05C0E0910002F091A0
:10E7200001021995279A2F9A8091C00082608093E8
:10E73000C00080E18093C40088E18093C1000000A4
:10E74000EE24FF24870144E0A42EB12CCC24DD2448
:10E7500024C0C5010197F1F70894E11CF11C011DCB
:10E76000111D21E2E2162EE4F20620E0020720E06D
:10E77000120718F031E0C32ED12CC801B70127ECE5
:10E780003BE140E050E00F9441FE611571058105C9
:10E79000910519F485B1805885B98091C00087FD35
:10E7A00003C0C114D104A9F2A6014F5F5F4FC25E3E
:10E7B000DE4F59834883CE51D140C25EDE4F8881FF
:10E7C0009981CE51D140019711F00D9410FEC05D9A
:10E7D000DE4F19821882C053D14060E0C15DDE4F28
:10E7E0001882CF52D14088249924C35DDE4F19820C
:10E7F0001882CD52D140C05EDE4F188219821A8233
:10E800001B82C052D140CE5CDE4F188219821A8220
:10E810001B82C253D140EE24FF2487010BBFF701B6
:10E8200007911691C45CDE4F19830883CC53D14005
:10E830000D940BFEC25EDE4F28813981CE51D1404E
:10E840002130310509F52091C600C25EDE4F1982E4
:10E850001882CE51D14022C02F5F3F4F4F4F5F4FA4
:10E86000213082E138078AE7480780E0580780F0C6
:10E87000C45CDE4FE881F981CC53D140EF5FFF4F9C
:10E8800019F0EE27FF27099420E030E040E050E047
:10E890008091C00087FFE0CF2091C600C35DDE4FAE
:10E8A00048815981CD52D1404F5F5F4FC35DDE4FEC
:10E8B00059834883CD52D140213209F063C64A3092
:10E8C000510508F05FC60894811C911C53E0851621
:10E8D000910409F059C600E010E018C081E280936D
:10E8E000C6008091C00086FFFCCF8091C00080648C
:10E8F0008093C0002F5F3F4F2931310579F70F9486
:10E90000DCF10F5F1F4F0530110519F020E030E0FA
:10E91000E5CF10920A0210920B0210920C02109294
:10E920000D02109206021092070210920802109235
:10E930000902109202021092030210920402109235
:10E9400005028FEE90EE60E00F94F5F180E191EE1C
:10E9500060E00F94C2F18091C00087FFFCCF9091DE
:10E96000C600903608F09F759032B8F09093C600BC
:10E970008091C00086FFFCCF8091C00080648093AE
:10E98000C000A0E2A093C6008091C00086FFFCCF2B
:10E990008091C00080648093C000983409F4D7C18E
:10E9A0009934B8F4923409F459C1933458F490333B
:10E9B00019F1903308F4E3C59F33A1F1903409F0C5
:10E9C000DEC5BDC0953409F470C1963409F0D7C5D1
:10E9D00098C1923509F42BC2933538F49C3409F46C
:10E9E000F5C1913509F0CBC518C2963509F445C279
:10E9F000993509F0C4C567C483E792EE62E00F94CD
:10EA0000F5F110920602109207021092080210927D
:10EA1000090210920A0210920B0210920C0210923C
:10EA20000D0213C18FE792EE62E00F94F5F18FEEC5
:10EA300090EE60E00F94F5F181E291EE60E00F94CA
:10EA4000C2F187EB91EE60E00F94F5F180E391EE77
:10EA500060E00F94C2F184EE90EE60E00F94F5F167
:10EA60008FE391EE60E00F94C2F186E090E061E008
:10EA700070E00F9434F20F94DCF18DE591EE60E0DC
:10EA80000F94C2F189EC91EE60E00F94F5F18EE401
:10EA900091EE60E00F94C2F183EC91EE60E00F9490
:10EAA000F5F18CE691EE60E00F94C2F18EE10F94E7
:10EAB0000DF288E90F940DF281E00F940DF20F949E
:10EAC000DCF18BE791EE60E00F94C2F119E0E0E039
:10EAD000F0E010935700E4918E2F0F940DF20F94F5
:10EAE000DCF18AE891EE60E00F94C2F1E3E0F0E03F
:10EAF00010935700E4918E2F0F940DF20F94DCF1D8
:10EB000089E991EE60E00F94C2F1E2E0F0E0109349
:10EB10005700E4918E2F0F940DF20F94DCF188EAE8
:10EB200091EE60E00F94C2F1E1E0F0E01093570045
:10EB30001491812F0F940DF20F94DCF107CF8BE825
:10EB400092EE62E00F94F5F18BE492EE60E00F94A8
:10EB5000F5F10F94DCF100E010E019C0C8016F2D51
:10EB60000F947FFEFF2031F489E492EE60E00F9471
:10EB7000C2F10BC0F092C6008091C00086FFFCCFAE
:10EB80008091C00080648093C0000F5F1F4FC80158
:10EB900081519F41A0E0B0E0ABBFFC01F790BAE229
:10EBA000FB1621F0E2E000301E07C1F60F94DCF105
:10EBB0000F94DCF187E592EE60E00F94F5F10F948D
:10EBC000DCF1CC24DD2400E010E01EC0C8010F946D
:10EBD00077FEF82E882331F489E492EE60E00F94FA
:10EBE000C2F10BC08093C6008091C00086FFFCCFAD
:10EBF0008091C00080648093C000FE1419F00894D6
:10EC0000C11CD11C0F5F1F4FC80181519F41A0E063
:10EC1000B0E0ABBFFC01E790FAE2EF1621F022E092
:10EC20000030120799F60F94DCF10F94DCF182E6C4
:10EC300092EE60E00F94C2F1C60161E070E00F94C3
:10EC400034F20F94DCF10F94DCF110920202109276
:10EC50000302109204021092050278CE89E992EE26
:10EC600062E00F94F5F1279A2F9A16C02F9880E052
:10EC700090E0E0EDF7E03197F1F7019684369105E9
:10EC8000C1F72F9A80E090E0E0EDF7E03197F1F7DF
:10EC9000019684369105C1F78091C00087FFE6CFC9
:10ECA0008091C00087FFFCCF64C485EA92EE62E0E9
:10ECB0000F94F5F140910202509103026091040219
:10ECC0007091050281E020E10F9491F2809102029F
:10ECD00090910302A0910402B091050280509F4FD1
:10ECE000AF4FBF4F8093020290930302A0930402A0
:10ECF000B093050280509041A040B04008F426CE69
:10ED0000A4CF83EB92EE62E00F94F5F140910602FE
:10ED100050910702609108027091090280E020E1A1
:10ED20000F9491F28091060290910702A09108023F
:10ED3000B091090280509F4FAF4FBF4F80930602A2
:10ED400090930702A0930802B0930902FFCD80ECD4
:10ED500092EE62E00F94F5F183E792EE60E00F949B
:10ED6000F5F18FE792EE60E00F94F5F18BE892EE0B
:10ED700060E00F94F5F189E992EE60E00F94F5F10F
:10ED800085EA92EE60E00F94F5F183EB92EE60E09D
:10ED90000F94F5F180EC92EE60E00F94F5F187ECC2
:10EDA00092EE60E00F94F5F188ED92EE60E00F9442
:10EDB000F5F18FED92EE60E00F94F5F18AEE92EEB0
:10EDC00060E00F94F5F183E093EEBDCD87EC92EE19
:10EDD00062E00F94F5F181E40F947BF282E40F94EA
:10EDE0007BF283E40F947BF284E40F947BF285E45E
:10EDF0000F947BF286E40F947BF287E40F947BF20E
:10EE000088E40F947BF28AE40F947BF28BE40F94F6
:10EE10007BF28CE40F947BF299CD88ED92EE62E068
:10EE20000F94F5F1772473948824992409C48FED05
:10EE300092EE62E00F94F5F140910A0250910B02BC
:10EE400060910C0270910D0282E020E10F9491F22A
:10EE500080910A0290910B02A0910C02B0910D02D8
:10EE600080509F4FAF4FBF4F80930A0290930B0289
:10EE7000A0930C02B0930D0269CD8AEE92EE62E08F
:10EE80000F94F5F184EE90EE60E00F94F5F18FECC5
:10EE900091EE60E00F94F5F1662477244301CC5D98
:10EEA000DE4F19821882C452D140D401C301B695F5
:10EEB000A79597958795CA5DDE4F88839983AA8326
:10EEC000BB83C652D140CC5DDE4FA881B981C4520C
:10EED000D1401196CC5DDE4FB983A883C452D14096
:10EEE000CD0162E070E00F9434F2B0E2B093C6005E
:10EEF0008091C00086FFFCCF8091C0008064809329
:10EF0000C000EDE2E093C6008091C00086FFFCCF18
:10EF10008091C00080648093C000F0E2F093C6004E
:10EF20008091C00086FFFCCF8091C00080648093F8
:10EF3000C000CA5DDE4FE880F9800A811B81C6529D
:10EF4000D140BB27A12F902F8F2D0F940DF2CA5DBA
:10EF5000DE4F8881C652D1400F940DF2B0E2FB2EF5
:10EF6000F092C6008091C00086FFFCCF8091C00067
:10EF700080648093C0000DE30093C6008091C000C0
:10EF800086FFFCCF8091C00080648093C00010E2B7
:10EF90001093C6008091C00086FFFCCF8091C00016
:10EFA00080648093C0008BBEF3012791C65DDE4F65
:10EFB0002883CA52D140A22EBB24CC24DD2408943D
:10EFC000611C711C811C911C8BBEF3018791282E42
:10EFD0003324442455240894611C711C811C911C09
:10EFE0008BBEF3013791C55DDE4F3883CB52D140E4
:10EFF0000894611C711C811C911C8BBEF30147910C
:10F00000C45DDE4F4883CC52D140ADEFEA2EAFEF66
:10F01000FA2EAFEF0A2FAFEF1A2F6E0C7F1C801E57
:10F02000911E142D032DF22CEE24EA0CFB1C0C1D5A
:10F030001D1D0F940DF220E22093C6008091C000A8
:10F0400086FFFCCF8091C00080648093C000C65DC5
:10F05000DE4F8881CA52D1400F940DF230E23093D6
:10F06000C6008091C00086FFFCCF8091C000806404
:10F070008093C000C45DDE4F8881CC52D1400F9494
:10F080000DF240E24093C6008091C00086FFFCCFA5
:10F090008091C00080648093C000C55DDE4F888190
:10F0A000CB52D1400F940DF250E25093C6008091A4
:10F0B000C00086FFFCCF8091C00080648093C000B8
:10F0C0008FEFE8168FEFF80680E0080780E018075A
:10F0D00031F484E092EE60E00F94C2F1DFC0D80119
:10F0E000C7018070907CA070B0708050904CA040A0
:10F0F000B040D1F52FEF3FE340E050E0E222F322B1
:10F1000004231523CA5DDE4FA880B980CA80DB8046
:10F11000C652D140AE0CBF1CC01ED11EAA0CBB1CD7
:10F12000CC1CDD1C8EE092EE60E00F94C2F1BB2798
:10F13000A12F902F8F2D0F940DF28E2D0F940DF285
:10F1400030E23093C6008091C00086FFFCCF8091F2
:10F15000C00080648093C0004EE34093C60080915D
:10F16000C00086FFFCCF87C08EE09EEFA0E0B0E03D
:10F17000E822F9220A231B239CE0E91694E9F90608
:10F1800090E0090790E0190709F088C0C45DDE4FE0
:10F19000A881CC52D140EA2EFF2400E010E0102FCD
:10F1A0000F2DFE2CEE24C55DDE4FB881CB52D14031
:10F1B000EB0EF11C011D111DD601C501817090706F
:10F1C000A070B070DC0199278827E80EF91E0A1F8D
:10F1D0001B1F20EF30E040E050E0A222B322C42207
:10F1E000D52241E1AA0CBB1CCC1CDD1C4A95D1F7F1
:10F1F000EA0CFB1C0C1D1D1D81E090E0A0E0B0E0BE
:10F20000282239224A225B2235E1220C331C441C7D
:10F21000551C3A95D1F7E20CF31C041D151D57013E
:10F220006801AA0CBB1CCC1CDD1C85E192EE60E0E1
:10F230000F94C2F1C801AA27BB270F940DF2BB2778
:10F24000A12F902F8F2D0F940DF28E2D0F940DF274
:10F2500090E29093C6008091C00086FFFCCF809121
:10F26000C00080648093C000AEE3A093C60080918C
:10F27000C00086FFFCCF8091C00080648093C000F6
:10F28000C601AA27BB270F940DF2BB27AD2D9C2DDD
:10F290008B2D0F940DF28A2D0F940DF20F94DCF14B
:10F2A000CC5DDE4FE881F981C452D140F99709F471
:10F2B0004DCBF4E0EF2EF12C012D112D6E0C7F1CA7
:10F2C000801E911EF2CD83E093EE62E00F94F5F183
:10F2D0008AE192EE60E00F94C2F18091C00087FF56
:10F2E000FCCF1091C6001F751093C6008091C0001E
:10F2F00086FFFCCF8091C00080648093C0000F9493
:10F30000DCF1812F81548A3108F036C1163409F4BA
:10F3100095C0173490F4133409F44EC0143430F40B
:10F320001134F1F0123409F01DC130C0143409F465
:10F3300059C0153409F016C16BC01A3409F4C4C0A1
:10F340001B3438F4173409F48FC0183409F00AC19B
:10F35000A1C01B3409F4D2C01C3409F003C1E8C0B9
:10F360008FEF81B90DC082B1809582B980E090E0C5
:10F37000E0EDF7E03197F1F70196883C9105C1F790
:10F380008091C00087FFEFCF12B8EFC08FEF84B934
:10F390000DC085B1809585B980E090E0E0EDF7E0A3
:10F3A0003197F1F70196883C9105C1F78091C00033
:10F3B00087FFEFCF15B8D9C08FEF87B90DC088B1DF
:10F3C000809588B980E090E0E0EDF7E03197F1F7C3
:10F3D0000196883C9105C1F78091C00087FFEFCF6F
:10F3E00018B8C3C08FEF8AB90DC08BB180958BB9A7
:10F3F00080E090E0E0EDF7E03197F1F70196883C8E
:10F400009105C1F78091C00087FFEFCF1BB8ADC059
:10F410008FEF8DB90DC08EB180958EB980E090E0F0
:10F42000E0EDF7E03197F1F70196883C9105C1F7DF
:10F430008091C00087FFEFCF1EB897C08FEF80BBD1
:10F440000DC081B3809581BB80E090E0E0EDF7E0F6
:10F450003197F1F70196883C9105C1F78091C00082
:10F4600087FFEFCF11BA81C08FEF83BB0DC084B38C
:10F47000809584BB80E090E0E0EDF7E03197F1F714
:10F480000196883C9105C1F78091C00087FFEFCFBE
:10F4900014BA6BC08FEF809301010FC080910201FD
:10F4A00080958093020180E090E0E0EDF7E03197F5
:10F4B000F1F70196883C9105C1F78091C00087FF64
:10F4C000EDCF1092020151C08FEF809304010FC065
:10F4D0008091050180958093050180E090E0E0ED4A
:10F4E000F7E03197F1F70196883C9105C1F78091DB
:10F4F000C00087FFEDCF1092050137C08FEF8093DA
:10F5000007010FC08091080180958093080180E079
:10F5100090E0E0EDF7E03197F1F70196883C910536
:10F52000C1F78091C00087FFEDCF109208011DC088
:10F530008FEF80930A010FC080910B01809580931B
:10F540000B0180E090E0E0EDF7E03197F1F70196F4
:10F55000883C9105C1F78091C00087FFEDCF1092E4
:10F560000B0103C085E292EEEEC98091C00087FFD7
:10F57000FCCF8091C600EAC988E392EEE4C98CE131
:10F5800091EEE1C988249924933011F1943028F444
:10F59000913089F09230B8F408C0953061F195301F
:10F5A000F0F0963009F048C043C02B3109F042C951
:10F5B00091E06BE13FC96227C15DDE4F2883CF52E6
:10F5C000D14092E037C9B22FA0E0622793E032C960
:10F5D000822F90E0A82BB92B622794E02BC92E3004
:10F5E00009F039C3622795E0C05DDE4F19821882A9
:10F5F000C053D1401FC9E1E0F0E0EC0FFD1FC05D3A
:10F60000DE4F08811981C053D140E00FF11F2083E4
:10F610000F5F1F4FC05DDE4F19830883C053D14079
:10F6200062270A171B0709F005C9D80196E002C92D
:10F63000261709F010C303C0973009F0FBC87724E0
:10F640009981933109F412C19431C8F4963009F4C8
:10F65000D8C0973050F4923009F406C1933009F4C1
:10F660006DC0913009F059C253C0913109F477C08F
:10F67000923108F0BBC0903109F04FC2F5C098310B
:10F6800009F487C0993150F4953109F4EFC09531F0
:10F6900008F4C6C1963109F040C2C2C19A3109F4DA
:10F6A0006CC09A3108F491C09B3109F45BC09D3164
:10F6B00009F033C29D81903359F48F81882311F46E
:10F6C0009EE11CC0813011F091E018C098E916C08D
:10F6D000892F807591F0903539F4E0E0F0E089E011
:10F6E0008093570094910AC0983539F4E3E0F0E034
:10F6F00089E080935700949101C090E01A821B82A8
:10F700008D818C831D829E831F8227E030E009C299
:10F710001A8288E08B8381E48C8386E58D8382E581
:10F720008E8389E48F8383E5888780E589878FE5E9
:10F730008A8782E38B872BE030E0F3C18A818139AD
:10F7400041F0823941F0803911F48FE005C080E04A
:10F7500003C082E001C08AE01A828B8344C0772410
:10F76000739482C08D81882311F48EE12CC0813086
:10F7700011F081E028C088E926C01A82E1E0F0E0BB
:10F7800089E08093570084918B831C8224E030E0D1
:10F79000C8C18B81803589F48C81883039F4E2E0EE
:10F7A000F0E089E08093570084910DC0E0E0F0E044
:10F7B00089E080935700849106C0E3E0F0E089E09F
:10F7C0008093570084911A82DFCF8D81836C99E0FA
:10F7D000E1E0F0E0082E90935700E89507B600FCB2
:10F7E000FDCF1A821B8223E030E09BC180EC8A832C
:10F7F000CE5CDE4F188219821A821B82C253D1401E
:10F800008EC18A8190E0A0E0B0E0582F44273327D2
:10F8100022278B8190E0A0E0B0E0DC0199278827C7
:10F82000282B392B4A2B5B2B8D8190E0A0E0B0E098
:10F83000282B392B4A2B5B2B8C8190E0A0E0B0E089
:10F84000BA2FA92F982F8827282B392B4A2B5B2BCF
:10F85000220F331F441F551FC05EDE4F288339839C
:10F860004A835B83C052D1401A8259C13A81C95C34
:10F87000DE4F3883C753D140CA5CDE4F1882C6536F
:10F88000D1408B81C82EDD24CA5CDE4F488159816E
:10F89000C653D140C42AD52A933109F082C0CE5C28
:10F8A000DE4F88819981AA81BB81C253D1408050AB
:10F8B000904CA340B04030F583E0CE5CDE4FE88052
:10F8C000F9800A811B81C253D140F70100935B008C
:10F8D00080935700E89507B600FCFDCFCE5CDE4F65
:10F8E000088119812A813B81C253D14000501F4FAA
:10F8F0002F4F3F4FCE5CDE4F088319832A833B8313
:10F90000C253D140C05EDE4F488159816A817B81FC
:10F91000C052D140DE011B9631E08C9111962C91A2
:10F9200011971296C75CDE4F2883C953D140C85C3B
:10F93000DE4F1882C853D14090E0C85CDE4FE881AA
:10F94000F981C853D1408E2B9F2B0C01FA01609393
:10F950005B0030935700E89511244E5F5F4F6F4F67
:10F960007F4F0EEFE02E0FEFF02ECE0CDF1CC114F8
:10F97000D10499F685E0C05EDE4F088119812A81A5
:10F980003B81C052D140F80120935B008093570027
:10F99000E89507B600FCFDCF81E180935700E8951C
:10F9A00035C0C05EDE4F88819981AA81BB81C0527B
:10F9B000D140B695A795979587957C018601ABE0D8
:10F9C000AA2EB12CAC0EBD1E0BC0D5016D915D01F0
:10F9D000C7010F947FFE0894E11CF11C01501040F8
:10F9E0000115110591F7A60160E070E0440F551F65
:10F9F000661F771FC05EDE4FE880F9800A811B8199
:10FA0000C052D1404E0D5F1D601F711F1A82C05E33
:10FA1000DE4F488359836A837B83C052D1407FC0C5
:10FA2000FA80C55CDE4FF882CB53D140C65CDE4F16
:10FA30001882CA53D1408B81C82EDD24C65CDE4FAC
:10FA400008811981CA53D140C02AD12A1A828981DA
:10FA5000BE016D5F7F4F843121F59601C05EDE4FA0
:10FA6000E880F9800A811B81C052D1400BBFF701A9
:10FA700087919691DB018C9311969C936E5F7F4FDB
:10FA8000D801C7010296A11DB11DC05EDE4F88835B
:10FA90009983AA83BB83C052D14022503040F1F6F3
:10FAA00036C0C05EDE4F288139814A815B81C052F9
:10FAB000D1400894C108D108760100E010E0089414
:10FAC000C11CD11C0894E11CF11C011D111DE20E8A
:10FAD000F31E041F151F21BDBB27A52F942F832FB5
:10FAE00082BD2F5F3F4F4F4F5F4FF89A80B5DB01CC
:10FAF0008D93BD012E153F054007510761F7C05E8C
:10FB0000DE4F288339834A835B83C052D1409601FC
:10FB10002D5F3F4FFB01108204C080EC8A8322E0FE
:10FB200030E08BE18093C6008091C00086FFFCCF5F
:10FB30008091C00080648093C000C15DDE4FF88179
:10FB4000CF52D140F093C6008091C00086FFFCCF19
:10FB50008091C00080648093C000432F3093C60022
:10FB60008091C00086FFFCCF8091C00080648093AC
:10FB7000C000922F2093C6008091C00086FFFCCF6A
:10FB80008091C00080648093C0008EE08093C600A6
:10FB90008091C00086FFFCCF8091C000806480937C
:10FBA000C00065E1C15DDE4FE880CF52D1406E25D7
:10FBB00069276427FE01319610C090819093C6009A
:10FBC0008091C00086FFFCCF31968091C000806498
:10FBD0008093C0006927215030402115310569F715
:10FBE0006093C6008091C00086FFFCCF8091C0006A
:10FBF00080648093C00085B1805885B9772081F4F6
:10FC0000C15DDE4F0881CF52D1400F5FC15DDE4F35
:10FC10000883CF52D14090E0A0E0B0E00D941AF4F8
:10FC200027982F9880E090E020ED37E0F901319798
:10FC3000F1F7019684369105C9F700008091C00064
:10FC40008D7F8093C00081E180935700E895EE2777
:10FC5000FF270994FFCF90E00D941AF497FB092E2B
:10FC600007260AD077FD04D02ED006D000201AF443
:10FC7000709561957F4F0895F6F7909581959F4F08
:10FC80000895A1E21A2EAA1BBB1BFD010DC0AA1FDD
:10FC9000BB1FEE1FFF1FA217B307E407F50720F0F5
:10FCA000A21BB30BE40BF50B661F771F881F991F70
:10FCB0001A9469F760957095809590959B01AC01B9
:10FCC000BD01CF010895AA1BBB1B51E107C0AA1FAC
:10FCD000BB1FA617B70710F0A61BB70B881F991FED
:10FCE0005A95A9F780959095BC01CD010895F99991
:10FCF000FECF92BD81BDF89A992780B50895262F31
:10FD0000F999FECF1FBA92BD81BD20BD0FB6F89400
:0EFD1000FA9AF99A0FBE01960895F894FFCF63
:040000033000E000E9
:00000001FF
